{
  "contractName": "Debt",
  "abi": [
    {
      "constant": true,
      "inputs": [
        {
          "name": "",
          "type": "address"
        },
        {
          "name": "",
          "type": "address"
        }
      ],
      "name": "endorserToUserStake",
      "outputs": [
        {
          "name": "",
          "type": "uint256"
        }
      ],
      "payable": false,
      "stateMutability": "view",
      "type": "function",
      "signature": "0x02f363f1"
    },
    {
      "constant": true,
      "inputs": [
        {
          "name": "",
          "type": "address"
        }
      ],
      "name": "endorsedStake",
      "outputs": [
        {
          "name": "",
          "type": "uint256"
        }
      ],
      "payable": false,
      "stateMutability": "view",
      "type": "function",
      "signature": "0x23793698"
    },
    {
      "constant": true,
      "inputs": [
        {
          "name": "",
          "type": "address"
        },
        {
          "name": "",
          "type": "uint256"
        }
      ],
      "name": "userEndorsers",
      "outputs": [
        {
          "name": "",
          "type": "address"
        }
      ],
      "payable": false,
      "stateMutability": "view",
      "type": "function",
      "signature": "0x46a8bfe2"
    },
    {
      "constant": true,
      "inputs": [
        {
          "name": "",
          "type": "address"
        }
      ],
      "name": "availableToEndorse",
      "outputs": [
        {
          "name": "",
          "type": "uint256"
        }
      ],
      "payable": false,
      "stateMutability": "view",
      "type": "function",
      "signature": "0x86b462c2"
    },
    {
      "constant": true,
      "inputs": [
        {
          "name": "",
          "type": "address"
        },
        {
          "name": "",
          "type": "address"
        }
      ],
      "name": "userToEndorsedStake",
      "outputs": [
        {
          "name": "",
          "type": "uint256"
        }
      ],
      "payable": false,
      "stateMutability": "view",
      "type": "function",
      "signature": "0xa8a5ec66"
    },
    {
      "constant": true,
      "inputs": [
        {
          "name": "",
          "type": "address"
        },
        {
          "name": "",
          "type": "address"
        }
      ],
      "name": "endorsements",
      "outputs": [
        {
          "name": "",
          "type": "bool"
        }
      ],
      "payable": false,
      "stateMutability": "view",
      "type": "function",
      "signature": "0xe3bf0aff"
    },
    {
      "constant": true,
      "inputs": [
        {
          "name": "",
          "type": "address"
        }
      ],
      "name": "stakedAmount",
      "outputs": [
        {
          "name": "",
          "type": "uint256"
        }
      ],
      "payable": false,
      "stateMutability": "view",
      "type": "function",
      "signature": "0xf9931855"
    },
    {
      "anonymous": false,
      "inputs": [
        {
          "indexed": false,
          "name": "_staker",
          "type": "address"
        },
        {
          "indexed": false,
          "name": "_amount",
          "type": "uint256"
        }
      ],
      "name": "LogStakeMoney",
      "type": "event",
      "signature": "0x62c7741a593fffd08a3c06b7091df7b6f15a1df1f0dd6973a294c18dd20e45b9"
    },
    {
      "anonymous": false,
      "inputs": [
        {
          "indexed": false,
          "name": "_staker",
          "type": "address"
        },
        {
          "indexed": false,
          "name": "_amount",
          "type": "uint256"
        }
      ],
      "name": "LogWithdrawStakeMoney",
      "type": "event",
      "signature": "0x75293ffef634e3a98b3df17536efea0fc026ee8b422c755aecc9093f77d8ecf2"
    },
    {
      "anonymous": false,
      "inputs": [
        {
          "indexed": false,
          "name": "_staker",
          "type": "address"
        },
        {
          "indexed": false,
          "name": "_endorsed",
          "type": "address"
        },
        {
          "indexed": false,
          "name": "_amount",
          "type": "uint256"
        }
      ],
      "name": "LogEndorse",
      "type": "event",
      "signature": "0xf13deb3fec4383bd42e0b7de6c178b82a2cb900f3d5c06dc1596620242860b57"
    },
    {
      "anonymous": false,
      "inputs": [
        {
          "indexed": false,
          "name": "_staker",
          "type": "address"
        },
        {
          "indexed": false,
          "name": "_declined",
          "type": "address"
        }
      ],
      "name": "LogDeclineEndorsement",
      "type": "event",
      "signature": "0x9a321d8b34fc0eefafd2db0af243a071699ac11c864a68e8ad002aacb5bf41e2"
    },
    {
      "anonymous": false,
      "inputs": [
        {
          "indexed": false,
          "name": "_requester",
          "type": "address"
        },
        {
          "indexed": false,
          "name": "_amount",
          "type": "uint256"
        }
      ],
      "name": "LogRequestLending",
      "type": "event",
      "signature": "0x57ed06d23c45f213266ec963c4fac73d4512efcc5b0549fd3705c61c9eff4eec"
    },
    {
      "constant": true,
      "inputs": [
        {
          "name": "_staker",
          "type": "address"
        }
      ],
      "name": "getStakedAmount",
      "outputs": [
        {
          "name": "",
          "type": "uint256"
        }
      ],
      "payable": false,
      "stateMutability": "view",
      "type": "function",
      "signature": "0x4da6a556"
    },
    {
      "constant": true,
      "inputs": [
        {
          "name": "_owner",
          "type": "address"
        }
      ],
      "name": "getUserEndorsers",
      "outputs": [
        {
          "name": "",
          "type": "address[]"
        }
      ],
      "payable": false,
      "stateMutability": "view",
      "type": "function",
      "signature": "0x91409151"
    },
    {
      "constant": false,
      "inputs": [],
      "name": "stakeMoney",
      "outputs": [],
      "payable": true,
      "stateMutability": "payable",
      "type": "function",
      "signature": "0xdaa7fd17"
    },
    {
      "constant": false,
      "inputs": [
        {
          "name": "_amount",
          "type": "uint256"
        }
      ],
      "name": "withdrawStakeMoney",
      "outputs": [],
      "payable": false,
      "stateMutability": "nonpayable",
      "type": "function",
      "signature": "0x9c21cf97"
    },
    {
      "constant": false,
      "inputs": [
        {
          "name": "_endorsed",
          "type": "address"
        },
        {
          "name": "_amount",
          "type": "uint256"
        }
      ],
      "name": "endorseUser",
      "outputs": [],
      "payable": false,
      "stateMutability": "nonpayable",
      "type": "function",
      "signature": "0x8ee25f11"
    },
    {
      "constant": false,
      "inputs": [
        {
          "name": "_endorsed",
          "type": "address"
        }
      ],
      "name": "declineEndorsement",
      "outputs": [],
      "payable": false,
      "stateMutability": "nonpayable",
      "type": "function",
      "signature": "0xa464382f"
    },
    {
      "constant": false,
      "inputs": [],
      "name": "requestLending",
      "outputs": [],
      "payable": false,
      "stateMutability": "nonpayable",
      "type": "function",
      "signature": "0xd1c873b0"
    }
  ],
  "bytecode": "0x608060405234801561001057600080fd5b506119d5806100206000396000f3fe6080604052600436106100fa576000357c0100000000000000000000000000000000000000000000000000000000900480639c21cf971161009c578063d1c873b011610076578063d1c873b014610560578063daa7fd1714610577578063e3bf0aff14610581578063f99318551461060a576100fa565b80639c21cf971461044f578063a464382f1461048a578063a8a5ec66146104db576100fa565b80634da6a556116100d85780634da6a5561461028457806386b462c2146102e95780638ee25f111461034e57806391409151146103a9576100fa565b806302f363f1146100ff578063237936981461018457806346a8bfe2146101e9575b600080fd5b34801561010b57600080fd5b5061016e6004803603604081101561012257600080fd5b81019080803573ffffffffffffffffffffffffffffffffffffffff169060200190929190803573ffffffffffffffffffffffffffffffffffffffff16906020019092919050505061066f565b6040518082815260200191505060405180910390f35b34801561019057600080fd5b506101d3600480360360208110156101a757600080fd5b81019080803573ffffffffffffffffffffffffffffffffffffffff169060200190929190505050610694565b6040518082815260200191505060405180910390f35b3480156101f557600080fd5b506102426004803603604081101561020c57600080fd5b81019080803573ffffffffffffffffffffffffffffffffffffffff169060200190929190803590602001909291905050506106ac565b604051808273ffffffffffffffffffffffffffffffffffffffff1673ffffffffffffffffffffffffffffffffffffffff16815260200191505060405180910390f35b34801561029057600080fd5b506102d3600480360360208110156102a757600080fd5b81019080803573ffffffffffffffffffffffffffffffffffffffff1690602001909291905050506106f7565b6040518082815260200191505060405180910390f35b3480156102f557600080fd5b506103386004803603602081101561030c57600080fd5b81019080803573ffffffffffffffffffffffffffffffffffffffff16906020019092919050505061073f565b6040518082815260200191505060405180910390f35b34801561035a57600080fd5b506103a76004803603604081101561037157600080fd5b81019080803573ffffffffffffffffffffffffffffffffffffffff16906020019092919080359060200190929190505050610757565b005b3480156103b557600080fd5b506103f8600480360360208110156103cc57600080fd5b81019080803573ffffffffffffffffffffffffffffffffffffffff169060200190929190505050610d2e565b6040518080602001828103825283818151815260200191508051906020019060200280838360005b8381101561043b578082015181840152602081019050610420565b505050509050019250505060405180910390f35b34801561045b57600080fd5b506104886004803603602081101561047257600080fd5b8101908080359060200190929190505050610dfb565b005b34801561049657600080fd5b506104d9600480360360208110156104ad57600080fd5b81019080803573ffffffffffffffffffffffffffffffffffffffff169060200190929190505050611141565b005b3480156104e757600080fd5b5061054a600480360360408110156104fe57600080fd5b81019080803573ffffffffffffffffffffffffffffffffffffffff169060200190929190803573ffffffffffffffffffffffffffffffffffffffff1690602001909291905050506115e9565b6040518082815260200191505060405180910390f35b34801561056c57600080fd5b5061057561160e565b005b61057f611768565b005b34801561058d57600080fd5b506105f0600480360360408110156105a457600080fd5b81019080803573ffffffffffffffffffffffffffffffffffffffff169060200190929190803573ffffffffffffffffffffffffffffffffffffffff1690602001909291905050506118fd565b604051808215151515815260200191505060405180910390f35b34801561061657600080fd5b506106596004803603602081101561062d57600080fd5b81019080803573ffffffffffffffffffffffffffffffffffffffff16906020019092919050505061192c565b6040518082815260200191505060405180910390f35b6005602052816000526040600020602052806000526040600020600091509150505481565b60026020528060005260406000206000915090505481565b600660205281600052604060002081815481106106c557fe5b906000526020600020016000915091509054906101000a900473ffffffffffffffffffffffffffffffffffffffff1681565b60008060008373ffffffffffffffffffffffffffffffffffffffff1673ffffffffffffffffffffffffffffffffffffffff168152602001908152602001600020549050919050565b60036020528060005260406000206000915090505481565b80600360003373ffffffffffffffffffffffffffffffffffffffff1673ffffffffffffffffffffffffffffffffffffffff16815260200190815260200160002054101561080c576040517f08c379a00000000000000000000000000000000000000000000000000000000081526004018080602001828103825260108152602001807f6e6f7420656e6f756768207374616b650000000000000000000000000000000081525060200191505060405180910390fd5b60018060003373ffffffffffffffffffffffffffffffffffffffff1673ffffffffffffffffffffffffffffffffffffffff16815260200190815260200160002060008473ffffffffffffffffffffffffffffffffffffffff1673ffffffffffffffffffffffffffffffffffffffff16815260200190815260200160002060006101000a81548160ff0219169083151502179055506108f281600360003373ffffffffffffffffffffffffffffffffffffffff1673ffffffffffffffffffffffffffffffffffffffff1681526020019081526020016000205461194490919063ffffffff16565b600360003373ffffffffffffffffffffffffffffffffffffffff1673ffffffffffffffffffffffffffffffffffffffff1681526020019081526020016000208190555061098781600260008573ffffffffffffffffffffffffffffffffffffffff1673ffffffffffffffffffffffffffffffffffffffff1681526020019081526020016000205461196490919063ffffffff16565b600260008473ffffffffffffffffffffffffffffffffffffffff1673ffffffffffffffffffffffffffffffffffffffff16815260200190815260200160002081905550610a5981600460003373ffffffffffffffffffffffffffffffffffffffff1673ffffffffffffffffffffffffffffffffffffffff16815260200190815260200160002060008573ffffffffffffffffffffffffffffffffffffffff1673ffffffffffffffffffffffffffffffffffffffff1681526020019081526020016000205461196490919063ffffffff16565b600460003373ffffffffffffffffffffffffffffffffffffffff1673ffffffffffffffffffffffffffffffffffffffff16815260200190815260200160002060008473ffffffffffffffffffffffffffffffffffffffff1673ffffffffffffffffffffffffffffffffffffffff16815260200190815260200160002081905550610b6881600560008573ffffffffffffffffffffffffffffffffffffffff1673ffffffffffffffffffffffffffffffffffffffff16815260200190815260200160002060003373ffffffffffffffffffffffffffffffffffffffff1673ffffffffffffffffffffffffffffffffffffffff1681526020019081526020016000205461196490919063ffffffff16565b600560008473ffffffffffffffffffffffffffffffffffffffff1673ffffffffffffffffffffffffffffffffffffffff16815260200190815260200160002060003373ffffffffffffffffffffffffffffffffffffffff1673ffffffffffffffffffffffffffffffffffffffff16815260200190815260200160002081905550600660008373ffffffffffffffffffffffffffffffffffffffff1673ffffffffffffffffffffffffffffffffffffffff1681526020019081526020016000203390806001815401808255809150509060018203906000526020600020016000909192909190916101000a81548173ffffffffffffffffffffffffffffffffffffffff021916908373ffffffffffffffffffffffffffffffffffffffff160217905550507ff13deb3fec4383bd42e0b7de6c178b82a2cb900f3d5c06dc1596620242860b57338383604051808473ffffffffffffffffffffffffffffffffffffffff1673ffffffffffffffffffffffffffffffffffffffff1681526020018373ffffffffffffffffffffffffffffffffffffffff1673ffffffffffffffffffffffffffffffffffffffff168152602001828152602001935050505060405180910390a15050565b6060600660008373ffffffffffffffffffffffffffffffffffffffff1673ffffffffffffffffffffffffffffffffffffffff168152602001908152602001600020805480602002602001604051908101604052809291908181526020018280548015610def57602002820191906000526020600020905b8160009054906101000a900473ffffffffffffffffffffffffffffffffffffffff1673ffffffffffffffffffffffffffffffffffffffff1681526020019060010190808311610da5575b50505050509050919050565b806000803373ffffffffffffffffffffffffffffffffffffffff1673ffffffffffffffffffffffffffffffffffffffff168152602001908152602001600020541015610eaf576040517f08c379a00000000000000000000000000000000000000000000000000000000081526004018080602001828103825260208152602001807f63616e2774207769746864726177206d6f7265207468616e206465706f73697481525060200191505060405180910390fd5b80600360003373ffffffffffffffffffffffffffffffffffffffff1673ffffffffffffffffffffffffffffffffffffffff168152602001908152602001600020541015610f64576040517f08c379a000000000000000000000000000000000000000000000000000000000815260040180806020018281038252601d8152602001807f63616e277420776974686472617720656e646f72736564206d6f6e657900000081525060200191505060405180910390fd5b610fb5816000803373ffffffffffffffffffffffffffffffffffffffff1673ffffffffffffffffffffffffffffffffffffffff1681526020019081526020016000205461194490919063ffffffff16565b6000803373ffffffffffffffffffffffffffffffffffffffff1673ffffffffffffffffffffffffffffffffffffffff1681526020019081526020016000208190555061104981600360003373ffffffffffffffffffffffffffffffffffffffff1673ffffffffffffffffffffffffffffffffffffffff1681526020019081526020016000205461194490919063ffffffff16565b600360003373ffffffffffffffffffffffffffffffffffffffff1673ffffffffffffffffffffffffffffffffffffffff168152602001908152602001600020819055503373ffffffffffffffffffffffffffffffffffffffff166108fc829081150290604051600060405180830381858888f193505050501580156110d2573d6000803e3d6000fd5b507f75293ffef634e3a98b3df17536efea0fc026ee8b422c755aecc9093f77d8ecf23382604051808373ffffffffffffffffffffffffffffffffffffffff1673ffffffffffffffffffffffffffffffffffffffff1681526020018281526020019250505060405180910390a150565b6000600160003373ffffffffffffffffffffffffffffffffffffffff1673ffffffffffffffffffffffffffffffffffffffff16815260200190815260200160002060008373ffffffffffffffffffffffffffffffffffffffff1673ffffffffffffffffffffffffffffffffffffffff16815260200190815260200160002060006101000a81548160ff0219169083151502179055506112a4600460003373ffffffffffffffffffffffffffffffffffffffff1673ffffffffffffffffffffffffffffffffffffffff16815260200190815260200160002060008373ffffffffffffffffffffffffffffffffffffffff1673ffffffffffffffffffffffffffffffffffffffff16815260200190815260200160002054600360003373ffffffffffffffffffffffffffffffffffffffff1673ffffffffffffffffffffffffffffffffffffffff1681526020019081526020016000205461196490919063ffffffff16565b600360003373ffffffffffffffffffffffffffffffffffffffff1673ffffffffffffffffffffffffffffffffffffffff168152602001908152602001600020819055506113b5600460003373ffffffffffffffffffffffffffffffffffffffff1673ffffffffffffffffffffffffffffffffffffffff16815260200190815260200160002060008373ffffffffffffffffffffffffffffffffffffffff1673ffffffffffffffffffffffffffffffffffffffff16815260200190815260200160002054600260008473ffffffffffffffffffffffffffffffffffffffff1673ffffffffffffffffffffffffffffffffffffffff1681526020019081526020016000205461194490919063ffffffff16565b600260008373ffffffffffffffffffffffffffffffffffffffff1673ffffffffffffffffffffffffffffffffffffffff168152602001908152602001600020819055506000600460003373ffffffffffffffffffffffffffffffffffffffff1673ffffffffffffffffffffffffffffffffffffffff16815260200190815260200160002060008373ffffffffffffffffffffffffffffffffffffffff1673ffffffffffffffffffffffffffffffffffffffff1681526020019081526020016000208190555060008090505b600660008373ffffffffffffffffffffffffffffffffffffffff1673ffffffffffffffffffffffffffffffffffffffff1681526020019081526020016000208054905081101561154e57600660008373ffffffffffffffffffffffffffffffffffffffff1673ffffffffffffffffffffffffffffffffffffffff168152602001908152602001600020818154811061151457fe5b9060005260206000200160006101000a81549073ffffffffffffffffffffffffffffffffffffffff02191690558080600101915050611480565b507f9a321d8b34fc0eefafd2db0af243a071699ac11c864a68e8ad002aacb5bf41e23382604051808373ffffffffffffffffffffffffffffffffffffffff1673ffffffffffffffffffffffffffffffffffffffff1681526020018273ffffffffffffffffffffffffffffffffffffffff1673ffffffffffffffffffffffffffffffffffffffff1681526020019250505060405180910390a150565b6004602052816000526040600020602052806000526040600020600091509150505481565b6000600260003373ffffffffffffffffffffffffffffffffffffffff1673ffffffffffffffffffffffffffffffffffffffff1681526020019081526020016000205490506116a481600260003373ffffffffffffffffffffffffffffffffffffffff1673ffffffffffffffffffffffffffffffffffffffff1681526020019081526020016000205461194490919063ffffffff16565b600260003373ffffffffffffffffffffffffffffffffffffffff1673ffffffffffffffffffffffffffffffffffffffff168152602001908152602001600020819055507f57ed06d23c45f213266ec963c4fac73d4512efcc5b0549fd3705c61c9eff4eec3361171d60028461198390919063ffffffff16565b604051808373ffffffffffffffffffffffffffffffffffffffff1673ffffffffffffffffffffffffffffffffffffffff1681526020018281526020019250505060405180910390a150565b6117b9346000803373ffffffffffffffffffffffffffffffffffffffff1673ffffffffffffffffffffffffffffffffffffffff1681526020019081526020016000205461196490919063ffffffff16565b6000803373ffffffffffffffffffffffffffffffffffffffff1673ffffffffffffffffffffffffffffffffffffffff1681526020019081526020016000208190555061184d34600360003373ffffffffffffffffffffffffffffffffffffffff1673ffffffffffffffffffffffffffffffffffffffff1681526020019081526020016000205461196490919063ffffffff16565b600360003373ffffffffffffffffffffffffffffffffffffffff1673ffffffffffffffffffffffffffffffffffffffff168152602001908152602001600020819055507f62c7741a593fffd08a3c06b7091df7b6f15a1df1f0dd6973a294c18dd20e45b93334604051808373ffffffffffffffffffffffffffffffffffffffff1673ffffffffffffffffffffffffffffffffffffffff1681526020018281526020019250505060405180910390a1565b60016020528160005260406000206020528060005260406000206000915091509054906101000a900460ff1681565b60006020528060005260406000206000915090505481565b60008282111561195357600080fd5b600082840390508091505092915050565b60008082840190508381101561197957600080fd5b8091505092915050565b600080821161199157600080fd5b600082848161199c57fe5b049050809150509291505056fea165627a7a723058201151f7691f3f3ca169c29a374873ce3d2c8786733bee1d7e3990fde8cb7e02b90029",
  "source": "pragma solidity ^0.5.0;\nimport '../node_modules/openzeppelin-solidity/contracts/math/SafeMath.sol';\n\ncontract Debt {\n\n  using SafeMath for uint256;\n  \n  /** @notice Logs when an User stakes money. */\n  event LogStakeMoney(\n    address _staker,\n    uint256 _amount\n  );\n\n  /** @notice Logs when an User withdraws stake money. */\n  event LogWithdrawStakeMoney(\n    address _staker,\n    uint256 _amount\n  );\n\n  /** @notice Logs when an User endorses another user. */\n  event LogEndorse(\n    address _staker,\n    address _endorsed,\n    uint256 _amount\n  );\n\n  /** @notice Logs when an User removes endorsement of another user. */\n  event LogDeclineEndorsement(\n    address _staker,\n    address _declined\n  );\n  \n  /** @notice Logs when an User requests a lending. */\n  event LogRequestLending(\n    address _requester,\n    uint256 _amount\n  );\n\n  /** @dev struct of debt object */ \n  struct debtStruct{\n    address debtor;\n    uint256 amount;\n    address lender;\n    string status; //pending, accepted, completed\n  }\n\n  /** @dev mapping of users and it's staked amount */ \n  mapping (address => uint256) public stakedAmount; \n  /** @dev mapping of users endorsed by an user */ \n  mapping (address => mapping( address => bool)) public endorsements;\n  /** @dev mapping of stake endorsed money available used for request lending */ \n  mapping (address => uint256) public endorsedStake;\n  /** @dev mapping of stake money of a user available to endorse to another user */ \n  mapping (address => uint256) public availableToEndorse;\n  /** @dev mapping of money endorsed from an user to an endorsed user */ \n  mapping (address => mapping( address => uint256)) public userToEndorsedStake;\n  /** @dev mapping of money endorsed from an user to another */ \n  mapping (address => mapping( address => uint256)) public endorserToUserStake;\n  /** @dev mapping of an array of users endorsing another user */ \n  mapping (address => address[]) public userEndorsers;\n\n  /** @notice Gets the amount stacked by an user.\n    * @param _staker address of the staker.\n    * @return staked amount.\n    */\n  function getStakedAmount(address _staker) public view returns(uint256){\n    return stakedAmount[_staker];\n  }\n\n  /** @notice Gets the array of addresses that endorsed an user.\n    * @param _owner address of the owner.\n    * @return array of addresses.\n    */\n  function getUserEndorsers(address _owner) public view returns(address[] memory){\n    return userEndorsers[_owner];\n  }\n \n  /** @notice Stakes money into the contract.\n    * @dev increase the amount staked and the amount available to endorse.\n    */\n  function stakeMoney() public payable {\n    stakedAmount[msg.sender] = stakedAmount[msg.sender].add(msg.value);\n    availableToEndorse[msg.sender] = availableToEndorse[msg.sender].add(msg.value);\n    emit LogStakeMoney(msg.sender, msg.value);\n  }\n\n  /** @notice Withdraws the staked money.\n    * @param _amount amount to be returned to the owner.\n    * @dev the amount can't be lended or endorsed in order to withdraw.\n    */\n  function withdrawStakeMoney(uint256 _amount) public {\n    //require to not have a debt in progress\n    require(stakedAmount[msg.sender] >= _amount, \"can't withdraw more than deposit\");\n    require(availableToEndorse[msg.sender] >= _amount, \"can't withdraw endorsed money\");\n    stakedAmount[msg.sender] = stakedAmount[msg.sender].sub(_amount);\n    availableToEndorse[msg.sender] = availableToEndorse[msg.sender].sub(_amount);\n    msg.sender.transfer(_amount);\n    emit LogWithdrawStakeMoney(msg.sender, _amount);\n  }\n\n  /** @notice Endorse an user with an amount.\n    * @param _endorsed The user that gets the endorsment.\n    * @param _amount amount to be endorsed the user.\n    * @dev the user needs to have stake available to endorse.\n    */\n  function endorseUser(address _endorsed, uint256 _amount) public {\n    require(availableToEndorse[msg.sender] >= _amount, \"not enough stake\");\n    endorsements[msg.sender][_endorsed] = true;\n    availableToEndorse[msg.sender] = availableToEndorse[msg.sender].sub(_amount);\n    endorsedStake[_endorsed] = endorsedStake[_endorsed].add(_amount);\n    userToEndorsedStake[msg.sender][_endorsed] = userToEndorsedStake[msg.sender][_endorsed].add(_amount);\n    endorserToUserStake[_endorsed][msg.sender] = endorserToUserStake[_endorsed][msg.sender].add(_amount);\n    userEndorsers[_endorsed].push(msg.sender);\n    emit LogEndorse(msg.sender, _endorsed, _amount);\n  }\n\n  /** @notice Removes the endorsement of an user.\n    * @param _endorsed The user that gets the endorsment removed.\n    * @dev The user can't have a lending to be declined. The amount endorsed is returned to the staker.\n    */\n  function declineEndorsement(address _endorsed) public {\n    //require to not have a debt in progress\n    endorsements[msg.sender][_endorsed] = false;\n    availableToEndorse[msg.sender] = availableToEndorse[msg.sender].add(userToEndorsedStake[msg.sender][_endorsed]);\n    endorsedStake[_endorsed] = endorsedStake[_endorsed].sub(userToEndorsedStake[msg.sender][_endorsed]);\n    userToEndorsedStake[msg.sender][_endorsed] = 0;\n    for (uint i = 0; i < userEndorsers[_endorsed].length; i++){\n      delete userEndorsers[_endorsed][i];\n    }\n    emit LogDeclineEndorsement(msg.sender, _endorsed);\n  }\n\n  /** @notice Creates a lend request that other users can fund.\n    * @dev Locks the endorsed money for a time, if there is no lending cancel the request. The requester can only request half of what is endorsed.\n    */\n  function requestLending() public {\n    uint256 amount = endorsedStake[msg.sender];\n    endorsedStake[msg.sender] = endorsedStake[msg.sender].sub(amount);\n    //crear objeto con div(2)\n    emit LogRequestLending(msg.sender, amount.div(2));\n  }\n}\n",
  "sourcePath": "/Users/crisgarner/Projects/hackathons/stacking-pals/contracts/Debt.sol",
  "compiler": {
    "name": "solc",
    "version": "0.5.7+commit.6da8b019.Emscripten.clang"
  },
  "schemaVersion": "3.0.6",
  "updatedAt": "2019-04-23T21:20:54.433Z",
  "devdoc": {
    "methods": {
      "declineEndorsement(address)": {
        "details": "The user can't have a lending to be declined. The amount endorsed is returned to the staker.",
        "params": {
          "_endorsed": "The user that gets the endorsment removed."
        }
      },
      "endorseUser(address,uint256)": {
        "details": "the user needs to have stake available to endorse.",
        "params": {
          "_amount": "amount to be endorsed the user.",
          "_endorsed": "The user that gets the endorsment."
        }
      },
      "getStakedAmount(address)": {
        "params": {
          "_staker": "address of the staker."
        },
        "return": "staked amount."
      },
      "getUserEndorsers(address)": {
        "params": {
          "_owner": "address of the owner."
        },
        "return": "array of addresses."
      },
      "requestLending()": {
        "details": "Locks the endorsed money for a time, if there is no lending cancel the request. The requester can only request half of what is endorsed."
      },
      "stakeMoney()": {
        "details": "increase the amount staked and the amount available to endorse."
      },
      "withdrawStakeMoney(uint256)": {
        "details": "the amount can't be lended or endorsed in order to withdraw.",
        "params": {
          "_amount": "amount to be returned to the owner."
        }
      }
    }
  },
  "userdoc": {
    "methods": {
      "declineEndorsement(address)": {
        "notice": "Removes the endorsement of an user."
      },
      "endorseUser(address,uint256)": {
        "notice": "Endorse an user with an amount."
      },
      "getStakedAmount(address)": {
        "notice": "Gets the amount stacked by an user."
      },
      "getUserEndorsers(address)": {
        "notice": "Gets the array of addresses that endorsed an user."
      },
      "requestLending()": {
        "notice": "Creates a lend request that other users can fund."
      },
      "stakeMoney()": {
        "notice": "Stakes money into the contract."
      },
      "withdrawStakeMoney(uint256)": {
        "notice": "Withdraws the staked money."
      }
    }
  }
}