{
  "contractName": "Debt",
  "abi": [
    {
      "constant": true,
      "inputs": [
        {
          "name": "",
          "type": "address"
        },
        {
          "name": "",
          "type": "address"
        }
      ],
      "name": "endorserToUserStake",
      "outputs": [
        {
          "name": "",
          "type": "uint256"
        }
      ],
      "payable": false,
      "stateMutability": "view",
      "type": "function"
    },
    {
      "constant": true,
      "inputs": [
        {
          "name": "",
          "type": "address"
        }
      ],
      "name": "endorsedStake",
      "outputs": [
        {
          "name": "",
          "type": "uint256"
        }
      ],
      "payable": false,
      "stateMutability": "view",
      "type": "function"
    },
    {
      "constant": true,
      "inputs": [
        {
          "name": "",
          "type": "address"
        }
      ],
      "name": "debts",
      "outputs": [
        {
          "name": "debtor",
          "type": "address"
        },
        {
          "name": "amount",
          "type": "uint256"
        },
        {
          "name": "lender",
          "type": "address"
        },
        {
          "name": "status",
          "type": "string"
        }
      ],
      "payable": false,
      "stateMutability": "view",
      "type": "function"
    },
    {
      "constant": true,
      "inputs": [
        {
          "name": "",
          "type": "address"
        },
        {
          "name": "",
          "type": "uint256"
        }
      ],
      "name": "userEndorsers",
      "outputs": [
        {
          "name": "",
          "type": "address"
        }
      ],
      "payable": false,
      "stateMutability": "view",
      "type": "function"
    },
    {
      "constant": true,
      "inputs": [
        {
          "name": "",
          "type": "address"
        }
      ],
      "name": "availableToEndorse",
      "outputs": [
        {
          "name": "",
          "type": "uint256"
        }
      ],
      "payable": false,
      "stateMutability": "view",
      "type": "function"
    },
    {
      "constant": true,
      "inputs": [
        {
          "name": "",
          "type": "address"
        },
        {
          "name": "",
          "type": "address"
        }
      ],
      "name": "userToEndorsedStake",
      "outputs": [
        {
          "name": "",
          "type": "uint256"
        }
      ],
      "payable": false,
      "stateMutability": "view",
      "type": "function"
    },
    {
      "constant": true,
      "inputs": [
        {
          "name": "",
          "type": "address"
        },
        {
          "name": "",
          "type": "address"
        }
      ],
      "name": "endorsements",
      "outputs": [
        {
          "name": "",
          "type": "bool"
        }
      ],
      "payable": false,
      "stateMutability": "view",
      "type": "function"
    },
    {
      "constant": true,
      "inputs": [
        {
          "name": "",
          "type": "address"
        }
      ],
      "name": "stakedAmount",
      "outputs": [
        {
          "name": "",
          "type": "uint256"
        }
      ],
      "payable": false,
      "stateMutability": "view",
      "type": "function"
    },
    {
      "anonymous": false,
      "inputs": [
        {
          "indexed": false,
          "name": "_staker",
          "type": "address"
        },
        {
          "indexed": false,
          "name": "_amount",
          "type": "uint256"
        }
      ],
      "name": "LogStakeMoney",
      "type": "event"
    },
    {
      "anonymous": false,
      "inputs": [
        {
          "indexed": false,
          "name": "_staker",
          "type": "address"
        },
        {
          "indexed": false,
          "name": "_amount",
          "type": "uint256"
        }
      ],
      "name": "LogWithdrawStakeMoney",
      "type": "event"
    },
    {
      "anonymous": false,
      "inputs": [
        {
          "indexed": false,
          "name": "_staker",
          "type": "address"
        },
        {
          "indexed": false,
          "name": "_endorsed",
          "type": "address"
        },
        {
          "indexed": false,
          "name": "_amount",
          "type": "uint256"
        }
      ],
      "name": "LogEndorse",
      "type": "event"
    },
    {
      "anonymous": false,
      "inputs": [
        {
          "indexed": false,
          "name": "_staker",
          "type": "address"
        },
        {
          "indexed": false,
          "name": "_declined",
          "type": "address"
        }
      ],
      "name": "LogDeclineEndorsement",
      "type": "event"
    },
    {
      "anonymous": false,
      "inputs": [
        {
          "indexed": false,
          "name": "_requester",
          "type": "address"
        },
        {
          "indexed": false,
          "name": "_amount",
          "type": "uint256"
        }
      ],
      "name": "LogRequestLending",
      "type": "event"
    },
    {
      "constant": true,
      "inputs": [
        {
          "name": "_staker",
          "type": "address"
        }
      ],
      "name": "getStakedAmount",
      "outputs": [
        {
          "name": "",
          "type": "uint256"
        }
      ],
      "payable": false,
      "stateMutability": "view",
      "type": "function"
    },
    {
      "constant": true,
      "inputs": [
        {
          "name": "_owner",
          "type": "address"
        }
      ],
      "name": "getUserEndorsers",
      "outputs": [
        {
          "name": "",
          "type": "address[]"
        }
      ],
      "payable": false,
      "stateMutability": "view",
      "type": "function"
    },
    {
      "constant": false,
      "inputs": [],
      "name": "stakeMoney",
      "outputs": [],
      "payable": true,
      "stateMutability": "payable",
      "type": "function"
    },
    {
      "constant": false,
      "inputs": [
        {
          "name": "_amount",
          "type": "uint256"
        }
      ],
      "name": "withdrawStakeMoney",
      "outputs": [],
      "payable": false,
      "stateMutability": "nonpayable",
      "type": "function"
    },
    {
      "constant": false,
      "inputs": [
        {
          "name": "_endorsed",
          "type": "address"
        },
        {
          "name": "_amount",
          "type": "uint256"
        }
      ],
      "name": "endorseUser",
      "outputs": [],
      "payable": false,
      "stateMutability": "nonpayable",
      "type": "function"
    },
    {
      "constant": false,
      "inputs": [
        {
          "name": "_endorsed",
          "type": "address"
        }
      ],
      "name": "declineEndorsement",
      "outputs": [],
      "payable": false,
      "stateMutability": "nonpayable",
      "type": "function"
    },
    {
      "constant": false,
      "inputs": [],
      "name": "requestLending",
      "outputs": [],
      "payable": false,
      "stateMutability": "nonpayable",
      "type": "function"
    }
  ],
  "bytecode": "0x608060405234801561001057600080fd5b50611e51806100206000396000f3fe608060405260043610610105576000357c01000000000000000000000000000000000000000000000000000000009004806391409151116100a7578063d1c873b011610076578063d1c873b0146106a2578063daa7fd17146106b9578063e3bf0aff146106c3578063f99318551461074c57610105565b806391409151146104eb5780639c21cf9714610591578063a464382f146105cc578063a8a5ec661461061d57610105565b806346a8bfe2116100e357806346a8bfe21461032b5780634da6a556146103c657806386b462c21461042b5780638ee25f111461049057610105565b806302f363f11461010a578063237936981461018f5780632ecd4e7d146101f4575b600080fd5b34801561011657600080fd5b506101796004803603604081101561012d57600080fd5b81019080803573ffffffffffffffffffffffffffffffffffffffff169060200190929190803573ffffffffffffffffffffffffffffffffffffffff1690602001909291905050506107b1565b6040518082815260200191505060405180910390f35b34801561019b57600080fd5b506101de600480360360208110156101b257600080fd5b81019080803573ffffffffffffffffffffffffffffffffffffffff1690602001909291905050506107d6565b6040518082815260200191505060405180910390f35b34801561020057600080fd5b506102436004803603602081101561021757600080fd5b81019080803573ffffffffffffffffffffffffffffffffffffffff1690602001909291905050506107ee565b604051808573ffffffffffffffffffffffffffffffffffffffff1673ffffffffffffffffffffffffffffffffffffffff1681526020018481526020018373ffffffffffffffffffffffffffffffffffffffff1673ffffffffffffffffffffffffffffffffffffffff16815260200180602001828103825283818151815260200191508051906020019080838360005b838110156102ed5780820151818401526020810190506102d2565b50505050905090810190601f16801561031a5780820380516001836020036101000a031916815260200191505b509550505050505060405180910390f35b34801561033757600080fd5b506103846004803603604081101561034e57600080fd5b81019080803573ffffffffffffffffffffffffffffffffffffffff169060200190929190803590602001909291905050506108f6565b604051808273ffffffffffffffffffffffffffffffffffffffff1673ffffffffffffffffffffffffffffffffffffffff16815260200191505060405180910390f35b3480156103d257600080fd5b50610415600480360360208110156103e957600080fd5b81019080803573ffffffffffffffffffffffffffffffffffffffff169060200190929190505050610941565b6040518082815260200191505060405180910390f35b34801561043757600080fd5b5061047a6004803603602081101561044e57600080fd5b81019080803573ffffffffffffffffffffffffffffffffffffffff169060200190929190505050610989565b6040518082815260200191505060405180910390f35b34801561049c57600080fd5b506104e9600480360360408110156104b357600080fd5b81019080803573ffffffffffffffffffffffffffffffffffffffff169060200190929190803590602001909291905050506109a1565b005b3480156104f757600080fd5b5061053a6004803603602081101561050e57600080fd5b81019080803573ffffffffffffffffffffffffffffffffffffffff169060200190929190505050610f78565b6040518080602001828103825283818151815260200191508051906020019060200280838360005b8381101561057d578082015181840152602081019050610562565b505050509050019250505060405180910390f35b34801561059d57600080fd5b506105ca600480360360208110156105b457600080fd5b8101908080359060200190929190505050611045565b005b3480156105d857600080fd5b5061061b600480360360208110156105ef57600080fd5b81019080803573ffffffffffffffffffffffffffffffffffffffff16906020019092919050505061138b565b005b34801561062957600080fd5b5061068c6004803603604081101561064057600080fd5b81019080803573ffffffffffffffffffffffffffffffffffffffff169060200190929190803573ffffffffffffffffffffffffffffffffffffffff169060200190929190505050611833565b6040518082815260200191505060405180910390f35b3480156106ae57600080fd5b506106b7611858565b005b6106c1611b3f565b005b3480156106cf57600080fd5b50610732600480360360408110156106e657600080fd5b81019080803573ffffffffffffffffffffffffffffffffffffffff169060200190929190803573ffffffffffffffffffffffffffffffffffffffff169060200190929190505050611cd4565b604051808215151515815260200191505060405180910390f35b34801561075857600080fd5b5061079b6004803603602081101561076f57600080fd5b81019080803573ffffffffffffffffffffffffffffffffffffffff169060200190929190505050611d03565b6040518082815260200191505060405180910390f35b6005602052816000526040600020602052806000526040600020600091509150505481565b60026020528060005260406000206000915090505481565b60076020528060005260406000206000915090508060000160009054906101000a900473ffffffffffffffffffffffffffffffffffffffff16908060010154908060020160009054906101000a900473ffffffffffffffffffffffffffffffffffffffff1690806003018054600181600116156101000203166002900480601f0160208091040260200160405190810160405280929190818152602001828054600181600116156101000203166002900480156108ec5780601f106108c1576101008083540402835291602001916108ec565b820191906000526020600020905b8154815290600101906020018083116108cf57829003601f168201915b5050505050905084565b6006602052816000526040600020818154811061090f57fe5b906000526020600020016000915091509054906101000a900473ffffffffffffffffffffffffffffffffffffffff1681565b60008060008373ffffffffffffffffffffffffffffffffffffffff1673ffffffffffffffffffffffffffffffffffffffff168152602001908152602001600020549050919050565b60036020528060005260406000206000915090505481565b80600360003373ffffffffffffffffffffffffffffffffffffffff1673ffffffffffffffffffffffffffffffffffffffff168152602001908152602001600020541015610a56576040517f08c379a00000000000000000000000000000000000000000000000000000000081526004018080602001828103825260108152602001807f6e6f7420656e6f756768207374616b650000000000000000000000000000000081525060200191505060405180910390fd5b60018060003373ffffffffffffffffffffffffffffffffffffffff1673ffffffffffffffffffffffffffffffffffffffff16815260200190815260200160002060008473ffffffffffffffffffffffffffffffffffffffff1673ffffffffffffffffffffffffffffffffffffffff16815260200190815260200160002060006101000a81548160ff021916908315150217905550610b3c81600360003373ffffffffffffffffffffffffffffffffffffffff1673ffffffffffffffffffffffffffffffffffffffff16815260200190815260200160002054611d1b90919063ffffffff16565b600360003373ffffffffffffffffffffffffffffffffffffffff1673ffffffffffffffffffffffffffffffffffffffff16815260200190815260200160002081905550610bd181600260008573ffffffffffffffffffffffffffffffffffffffff1673ffffffffffffffffffffffffffffffffffffffff16815260200190815260200160002054611d3b90919063ffffffff16565b600260008473ffffffffffffffffffffffffffffffffffffffff1673ffffffffffffffffffffffffffffffffffffffff16815260200190815260200160002081905550610ca381600460003373ffffffffffffffffffffffffffffffffffffffff1673ffffffffffffffffffffffffffffffffffffffff16815260200190815260200160002060008573ffffffffffffffffffffffffffffffffffffffff1673ffffffffffffffffffffffffffffffffffffffff16815260200190815260200160002054611d3b90919063ffffffff16565b600460003373ffffffffffffffffffffffffffffffffffffffff1673ffffffffffffffffffffffffffffffffffffffff16815260200190815260200160002060008473ffffffffffffffffffffffffffffffffffffffff1673ffffffffffffffffffffffffffffffffffffffff16815260200190815260200160002081905550610db281600560008573ffffffffffffffffffffffffffffffffffffffff1673ffffffffffffffffffffffffffffffffffffffff16815260200190815260200160002060003373ffffffffffffffffffffffffffffffffffffffff1673ffffffffffffffffffffffffffffffffffffffff16815260200190815260200160002054611d3b90919063ffffffff16565b600560008473ffffffffffffffffffffffffffffffffffffffff1673ffffffffffffffffffffffffffffffffffffffff16815260200190815260200160002060003373ffffffffffffffffffffffffffffffffffffffff1673ffffffffffffffffffffffffffffffffffffffff16815260200190815260200160002081905550600660008373ffffffffffffffffffffffffffffffffffffffff1673ffffffffffffffffffffffffffffffffffffffff1681526020019081526020016000203390806001815401808255809150509060018203906000526020600020016000909192909190916101000a81548173ffffffffffffffffffffffffffffffffffffffff021916908373ffffffffffffffffffffffffffffffffffffffff160217905550507ff13deb3fec4383bd42e0b7de6c178b82a2cb900f3d5c06dc1596620242860b57338383604051808473ffffffffffffffffffffffffffffffffffffffff1673ffffffffffffffffffffffffffffffffffffffff1681526020018373ffffffffffffffffffffffffffffffffffffffff1673ffffffffffffffffffffffffffffffffffffffff168152602001828152602001935050505060405180910390a15050565b6060600660008373ffffffffffffffffffffffffffffffffffffffff1673ffffffffffffffffffffffffffffffffffffffff16815260200190815260200160002080548060200260200160405190810160405280929190818152602001828054801561103957602002820191906000526020600020905b8160009054906101000a900473ffffffffffffffffffffffffffffffffffffffff1673ffffffffffffffffffffffffffffffffffffffff1681526020019060010190808311610fef575b50505050509050919050565b806000803373ffffffffffffffffffffffffffffffffffffffff1673ffffffffffffffffffffffffffffffffffffffff1681526020019081526020016000205410156110f9576040517f08c379a00000000000000000000000000000000000000000000000000000000081526004018080602001828103825260208152602001807f63616e2774207769746864726177206d6f7265207468616e206465706f73697481525060200191505060405180910390fd5b80600360003373ffffffffffffffffffffffffffffffffffffffff1673ffffffffffffffffffffffffffffffffffffffff1681526020019081526020016000205410156111ae576040517f08c379a000000000000000000000000000000000000000000000000000000000815260040180806020018281038252601d8152602001807f63616e277420776974686472617720656e646f72736564206d6f6e657900000081525060200191505060405180910390fd5b6111ff816000803373ffffffffffffffffffffffffffffffffffffffff1673ffffffffffffffffffffffffffffffffffffffff16815260200190815260200160002054611d1b90919063ffffffff16565b6000803373ffffffffffffffffffffffffffffffffffffffff1673ffffffffffffffffffffffffffffffffffffffff1681526020019081526020016000208190555061129381600360003373ffffffffffffffffffffffffffffffffffffffff1673ffffffffffffffffffffffffffffffffffffffff16815260200190815260200160002054611d1b90919063ffffffff16565b600360003373ffffffffffffffffffffffffffffffffffffffff1673ffffffffffffffffffffffffffffffffffffffff168152602001908152602001600020819055503373ffffffffffffffffffffffffffffffffffffffff166108fc829081150290604051600060405180830381858888f1935050505015801561131c573d6000803e3d6000fd5b507f75293ffef634e3a98b3df17536efea0fc026ee8b422c755aecc9093f77d8ecf23382604051808373ffffffffffffffffffffffffffffffffffffffff1673ffffffffffffffffffffffffffffffffffffffff1681526020018281526020019250505060405180910390a150565b6000600160003373ffffffffffffffffffffffffffffffffffffffff1673ffffffffffffffffffffffffffffffffffffffff16815260200190815260200160002060008373ffffffffffffffffffffffffffffffffffffffff1673ffffffffffffffffffffffffffffffffffffffff16815260200190815260200160002060006101000a81548160ff0219169083151502179055506114ee600460003373ffffffffffffffffffffffffffffffffffffffff1673ffffffffffffffffffffffffffffffffffffffff16815260200190815260200160002060008373ffffffffffffffffffffffffffffffffffffffff1673ffffffffffffffffffffffffffffffffffffffff16815260200190815260200160002054600360003373ffffffffffffffffffffffffffffffffffffffff1673ffffffffffffffffffffffffffffffffffffffff16815260200190815260200160002054611d3b90919063ffffffff16565b600360003373ffffffffffffffffffffffffffffffffffffffff1673ffffffffffffffffffffffffffffffffffffffff168152602001908152602001600020819055506115ff600460003373ffffffffffffffffffffffffffffffffffffffff1673ffffffffffffffffffffffffffffffffffffffff16815260200190815260200160002060008373ffffffffffffffffffffffffffffffffffffffff1673ffffffffffffffffffffffffffffffffffffffff16815260200190815260200160002054600260008473ffffffffffffffffffffffffffffffffffffffff1673ffffffffffffffffffffffffffffffffffffffff16815260200190815260200160002054611d1b90919063ffffffff16565b600260008373ffffffffffffffffffffffffffffffffffffffff1673ffffffffffffffffffffffffffffffffffffffff168152602001908152602001600020819055506000600460003373ffffffffffffffffffffffffffffffffffffffff1673ffffffffffffffffffffffffffffffffffffffff16815260200190815260200160002060008373ffffffffffffffffffffffffffffffffffffffff1673ffffffffffffffffffffffffffffffffffffffff1681526020019081526020016000208190555060008090505b600660008373ffffffffffffffffffffffffffffffffffffffff1673ffffffffffffffffffffffffffffffffffffffff1681526020019081526020016000208054905081101561179857600660008373ffffffffffffffffffffffffffffffffffffffff1673ffffffffffffffffffffffffffffffffffffffff168152602001908152602001600020818154811061175e57fe5b9060005260206000200160006101000a81549073ffffffffffffffffffffffffffffffffffffffff021916905580806001019150506116ca565b507f9a321d8b34fc0eefafd2db0af243a071699ac11c864a68e8ad002aacb5bf41e23382604051808373ffffffffffffffffffffffffffffffffffffffff1673ffffffffffffffffffffffffffffffffffffffff1681526020018273ffffffffffffffffffffffffffffffffffffffff1673ffffffffffffffffffffffffffffffffffffffff1681526020019250505060405180910390a150565b6004602052816000526040600020602052806000526040600020600091509150505481565b6000600260003373ffffffffffffffffffffffffffffffffffffffff1673ffffffffffffffffffffffffffffffffffffffff1681526020019081526020016000205490506118ee81600260003373ffffffffffffffffffffffffffffffffffffffff1673ffffffffffffffffffffffffffffffffffffffff16815260200190815260200160002054611d1b90919063ffffffff16565b600260003373ffffffffffffffffffffffffffffffffffffffff1673ffffffffffffffffffffffffffffffffffffffff1681526020019081526020016000208190555060405180608001604052803373ffffffffffffffffffffffffffffffffffffffff16815260200161196c600284611d5a90919063ffffffff16565b8152602001600073ffffffffffffffffffffffffffffffffffffffff1681526020016040518060400160405280600781526020017f7374617274656400000000000000000000000000000000000000000000000000815250815250600760003373ffffffffffffffffffffffffffffffffffffffff1673ffffffffffffffffffffffffffffffffffffffff16815260200190815260200160002060008201518160000160006101000a81548173ffffffffffffffffffffffffffffffffffffffff021916908373ffffffffffffffffffffffffffffffffffffffff1602179055506020820151816001015560408201518160020160006101000a81548173ffffffffffffffffffffffffffffffffffffffff021916908373ffffffffffffffffffffffffffffffffffffffff1602179055506060820151816003019080519060200190611aba929190611d80565b509050507f57ed06d23c45f213266ec963c4fac73d4512efcc5b0549fd3705c61c9eff4eec33611af4600284611d5a90919063ffffffff16565b604051808373ffffffffffffffffffffffffffffffffffffffff1673ffffffffffffffffffffffffffffffffffffffff1681526020018281526020019250505060405180910390a150565b611b90346000803373ffffffffffffffffffffffffffffffffffffffff1673ffffffffffffffffffffffffffffffffffffffff16815260200190815260200160002054611d3b90919063ffffffff16565b6000803373ffffffffffffffffffffffffffffffffffffffff1673ffffffffffffffffffffffffffffffffffffffff16815260200190815260200160002081905550611c2434600360003373ffffffffffffffffffffffffffffffffffffffff1673ffffffffffffffffffffffffffffffffffffffff16815260200190815260200160002054611d3b90919063ffffffff16565b600360003373ffffffffffffffffffffffffffffffffffffffff1673ffffffffffffffffffffffffffffffffffffffff168152602001908152602001600020819055507f62c7741a593fffd08a3c06b7091df7b6f15a1df1f0dd6973a294c18dd20e45b93334604051808373ffffffffffffffffffffffffffffffffffffffff1673ffffffffffffffffffffffffffffffffffffffff1681526020018281526020019250505060405180910390a1565b60016020528160005260406000206020528060005260406000206000915091509054906101000a900460ff1681565b60006020528060005260406000206000915090505481565b600082821115611d2a57600080fd5b600082840390508091505092915050565b600080828401905083811015611d5057600080fd5b8091505092915050565b6000808211611d6857600080fd5b6000828481611d7357fe5b0490508091505092915050565b828054600181600116156101000203166002900490600052602060002090601f016020900481019282601f10611dc157805160ff1916838001178555611def565b82800160010185558215611def579182015b82811115611dee578251825591602001919060010190611dd3565b5b509050611dfc9190611e00565b5090565b611e2291905b80821115611e1e576000816000905550600101611e06565b5090565b9056fea165627a7a7230582017be4860be2986519b67e8dfc636d7e803dda0b63eb8b2485ee4b971e2fd8bb00029",
  "source": "pragma solidity ^0.5.0;\nimport '../node_modules/openzeppelin-solidity/contracts/math/SafeMath.sol';\n\ncontract Debt {\n\n  using SafeMath for uint256;\n  \n  /** @notice Logs when an User stakes money. */\n  event LogStakeMoney(\n    address _staker,\n    uint256 _amount\n  );\n\n  /** @notice Logs when an User withdraws stake money. */\n  event LogWithdrawStakeMoney(\n    address _staker,\n    uint256 _amount\n  );\n\n  /** @notice Logs when an User endorses another user. */\n  event LogEndorse(\n    address _staker,\n    address _endorsed,\n    uint256 _amount\n  );\n\n  /** @notice Logs when an User removes endorsement of another user. */\n  event LogDeclineEndorsement(\n    address _staker,\n    address _declined\n  );\n  \n  /** @notice Logs when an User requests a lending. */\n  event LogRequestLending(\n    address _requester,\n    uint256 _amount\n  );\n\n  /** @dev struct of debt object */ \n  struct debtStruct{\n    address debtor;\n    uint256 amount;\n    address lender;\n    string status; //started, accepted, completed\n  }\n\n  /** @dev mapping of users and it's staked amount */ \n  mapping (address => uint256) public stakedAmount; \n  /** @dev mapping of users endorsed by an user */ \n  mapping (address => mapping( address => bool)) public endorsements;\n  /** @dev mapping of stake endorsed money available used for request lending */ \n  mapping (address => uint256) public endorsedStake;\n  /** @dev mapping of stake money of a user available to endorse to another user */ \n  mapping (address => uint256) public availableToEndorse;\n  /** @dev mapping of money endorsed from an user to an endorsed user */ \n  mapping (address => mapping( address => uint256)) public userToEndorsedStake;\n  /** @dev mapping of money endorsed from an user to another */ \n  mapping (address => mapping( address => uint256)) public endorserToUserStake;\n  /** @dev mapping of an array of users endorsing another user */ \n  mapping (address => address[]) public userEndorsers;\n  /** @dev mapping of an array of users endorsing another user */ \n  mapping (address => debtStruct) public debts;\n\n  /** @notice Gets the amount stacked by an user.\n    * @param _staker address of the staker.\n    * @return staked amount.\n    */\n  function getStakedAmount(address _staker) public view returns(uint256){\n    return stakedAmount[_staker];\n  }\n\n  /** @notice Gets the array of addresses that endorsed an user.\n    * @param _owner address of the owner.\n    * @return array of addresses.\n    */\n  function getUserEndorsers(address _owner) public view returns(address[] memory){\n    return userEndorsers[_owner];\n  }\n\n  /** @notice Stakes money into the contract.\n    * @dev increase the amount staked and the amount available to endorse.\n    */\n  function stakeMoney() public payable {\n    stakedAmount[msg.sender] = stakedAmount[msg.sender].add(msg.value);\n    availableToEndorse[msg.sender] = availableToEndorse[msg.sender].add(msg.value);\n    emit LogStakeMoney(msg.sender, msg.value);\n  }\n\n  /** @notice Withdraws the staked money.\n    * @param _amount amount to be returned to the owner.\n    * @dev the amount can't be lended or endorsed in order to withdraw.\n    */\n  function withdrawStakeMoney(uint256 _amount) public {\n    //require to not have a debt in progress\n    require(stakedAmount[msg.sender] >= _amount, \"can't withdraw more than deposit\");\n    require(availableToEndorse[msg.sender] >= _amount, \"can't withdraw endorsed money\");\n    stakedAmount[msg.sender] = stakedAmount[msg.sender].sub(_amount);\n    availableToEndorse[msg.sender] = availableToEndorse[msg.sender].sub(_amount);\n    msg.sender.transfer(_amount);\n    emit LogWithdrawStakeMoney(msg.sender, _amount);\n  }\n\n  /** @notice Endorse an user with an amount.\n    * @param _endorsed The user that gets the endorsment.\n    * @param _amount amount to be endorsed the user.\n    * @dev the user needs to have stake available to endorse.\n    */\n  function endorseUser(address _endorsed, uint256 _amount) public {\n    require(availableToEndorse[msg.sender] >= _amount, \"not enough stake\");\n    endorsements[msg.sender][_endorsed] = true;\n    availableToEndorse[msg.sender] = availableToEndorse[msg.sender].sub(_amount);\n    endorsedStake[_endorsed] = endorsedStake[_endorsed].add(_amount);\n    userToEndorsedStake[msg.sender][_endorsed] = userToEndorsedStake[msg.sender][_endorsed].add(_amount);\n    endorserToUserStake[_endorsed][msg.sender] = endorserToUserStake[_endorsed][msg.sender].add(_amount);\n    userEndorsers[_endorsed].push(msg.sender);\n    emit LogEndorse(msg.sender, _endorsed, _amount);\n  }\n\n  /** @notice Removes the endorsement of an user.\n    * @param _endorsed The user that gets the endorsment removed.\n    * @dev The user can't have a lending to be declined. The amount endorsed is returned to the staker.\n    */\n  function declineEndorsement(address _endorsed) public {\n    //require to not have a debt in progress\n    endorsements[msg.sender][_endorsed] = false;\n    availableToEndorse[msg.sender] = availableToEndorse[msg.sender].add(userToEndorsedStake[msg.sender][_endorsed]);\n    endorsedStake[_endorsed] = endorsedStake[_endorsed].sub(userToEndorsedStake[msg.sender][_endorsed]);\n    userToEndorsedStake[msg.sender][_endorsed] = 0;\n    for (uint i = 0; i < userEndorsers[_endorsed].length; i++){\n      delete userEndorsers[_endorsed][i];\n    }\n    emit LogDeclineEndorsement(msg.sender, _endorsed);\n  }\n\n  /** @notice Creates a lend request that other users can fund.\n    * @dev Locks the endorsed money for a time, if there is no lending cancel the request. The requester can only request half of what is endorsed.\n    */\n  function requestLending() public {\n    uint256 amount = endorsedStake[msg.sender];\n    endorsedStake[msg.sender] = endorsedStake[msg.sender].sub(amount);\n    debts[msg.sender] = debtStruct(msg.sender, amount.div(2), address(0), \"started\");\n    emit LogRequestLending(msg.sender, amount.div(2));\n  }\n}\n",
  "sourcePath": "/Users/crisgarner/Projects/hackathons/ristretto/contracts/Debt.sol",
  "compiler": {
    "name": "solc",
    "version": "0.5.7+commit.6da8b019.Emscripten.clang"
  },
  "schemaVersion": "3.0.6",
  "updatedAt": "2019-04-25T16:58:15.868Z",
  "devdoc": {
    "methods": {
      "declineEndorsement(address)": {
        "details": "The user can't have a lending to be declined. The amount endorsed is returned to the staker.",
        "params": {
          "_endorsed": "The user that gets the endorsment removed."
        }
      },
      "endorseUser(address,uint256)": {
        "details": "the user needs to have stake available to endorse.",
        "params": {
          "_amount": "amount to be endorsed the user.",
          "_endorsed": "The user that gets the endorsment."
        }
      },
      "getStakedAmount(address)": {
        "params": {
          "_staker": "address of the staker."
        },
        "return": "staked amount."
      },
      "getUserEndorsers(address)": {
        "params": {
          "_owner": "address of the owner."
        },
        "return": "array of addresses."
      },
      "requestLending()": {
        "details": "Locks the endorsed money for a time, if there is no lending cancel the request. The requester can only request half of what is endorsed."
      },
      "stakeMoney()": {
        "details": "increase the amount staked and the amount available to endorse."
      },
      "withdrawStakeMoney(uint256)": {
        "details": "the amount can't be lended or endorsed in order to withdraw.",
        "params": {
          "_amount": "amount to be returned to the owner."
        }
      }
    }
  },
  "userdoc": {
    "methods": {
      "declineEndorsement(address)": {
        "notice": "Removes the endorsement of an user."
      },
      "endorseUser(address,uint256)": {
        "notice": "Endorse an user with an amount."
      },
      "getStakedAmount(address)": {
        "notice": "Gets the amount stacked by an user."
      },
      "getUserEndorsers(address)": {
        "notice": "Gets the array of addresses that endorsed an user."
      },
      "requestLending()": {
        "notice": "Creates a lend request that other users can fund."
      },
      "stakeMoney()": {
        "notice": "Stakes money into the contract."
      },
      "withdrawStakeMoney(uint256)": {
        "notice": "Withdraws the staked money."
      }
    }
  }
}