{
  "contractName": "Debt",
  "abi": [
    {
      "constant": true,
      "inputs": [
        {
          "name": "",
          "type": "address"
        }
      ],
      "name": "lenders",
      "outputs": [
        {
          "name": "stakedAmount",
          "type": "uint256"
        },
        {
          "name": "availableToEndorse",
          "type": "uint256"
        }
      ],
      "payable": false,
      "stateMutability": "view",
      "type": "function",
      "signature": "0x28fd10d7"
    },
    {
      "constant": true,
      "inputs": [
        {
          "name": "",
          "type": "address"
        }
      ],
      "name": "debts",
      "outputs": [
        {
          "name": "debtor",
          "type": "address"
        },
        {
          "name": "amount",
          "type": "uint256"
        },
        {
          "name": "lender",
          "type": "address"
        },
        {
          "name": "status",
          "type": "string"
        }
      ],
      "payable": false,
      "stateMutability": "view",
      "type": "function",
      "signature": "0x2ecd4e7d"
    },
    {
      "constant": true,
      "inputs": [
        {
          "name": "",
          "type": "address"
        }
      ],
      "name": "debtors",
      "outputs": [
        {
          "name": "endorsedStake",
          "type": "uint256"
        }
      ],
      "payable": false,
      "stateMutability": "view",
      "type": "function",
      "signature": "0xaa6be303"
    },
    {
      "anonymous": false,
      "inputs": [
        {
          "indexed": false,
          "name": "_staker",
          "type": "address"
        },
        {
          "indexed": false,
          "name": "_amount",
          "type": "uint256"
        }
      ],
      "name": "LogStakeMoney",
      "type": "event",
      "signature": "0x62c7741a593fffd08a3c06b7091df7b6f15a1df1f0dd6973a294c18dd20e45b9"
    },
    {
      "anonymous": false,
      "inputs": [
        {
          "indexed": false,
          "name": "_staker",
          "type": "address"
        },
        {
          "indexed": false,
          "name": "_amount",
          "type": "uint256"
        }
      ],
      "name": "LogWithdrawStakeMoney",
      "type": "event",
      "signature": "0x75293ffef634e3a98b3df17536efea0fc026ee8b422c755aecc9093f77d8ecf2"
    },
    {
      "anonymous": false,
      "inputs": [
        {
          "indexed": false,
          "name": "_staker",
          "type": "address"
        },
        {
          "indexed": false,
          "name": "_endorsed",
          "type": "address"
        },
        {
          "indexed": false,
          "name": "_amount",
          "type": "uint256"
        }
      ],
      "name": "LogEndorse",
      "type": "event",
      "signature": "0xf13deb3fec4383bd42e0b7de6c178b82a2cb900f3d5c06dc1596620242860b57"
    },
    {
      "anonymous": false,
      "inputs": [
        {
          "indexed": false,
          "name": "_staker",
          "type": "address"
        },
        {
          "indexed": false,
          "name": "_declined",
          "type": "address"
        }
      ],
      "name": "LogDeclineEndorsement",
      "type": "event",
      "signature": "0x9a321d8b34fc0eefafd2db0af243a071699ac11c864a68e8ad002aacb5bf41e2"
    },
    {
      "anonymous": false,
      "inputs": [
        {
          "indexed": false,
          "name": "_requester",
          "type": "address"
        },
        {
          "indexed": false,
          "name": "_amount",
          "type": "uint256"
        }
      ],
      "name": "LogRequestLending",
      "type": "event",
      "signature": "0x57ed06d23c45f213266ec963c4fac73d4512efcc5b0549fd3705c61c9eff4eec"
    },
    {
      "constant": true,
      "inputs": [
        {
          "name": "_lender",
          "type": "address"
        }
      ],
      "name": "getLender",
      "outputs": [
        {
          "name": "",
          "type": "uint256"
        },
        {
          "name": "",
          "type": "uint256"
        }
      ],
      "payable": false,
      "stateMutability": "view",
      "type": "function",
      "signature": "0x527d5906"
    },
    {
      "constant": true,
      "inputs": [
        {
          "name": "_lender",
          "type": "address"
        }
      ],
      "name": "getStakedAmount",
      "outputs": [
        {
          "name": "",
          "type": "uint256"
        }
      ],
      "payable": false,
      "stateMutability": "view",
      "type": "function",
      "signature": "0x4da6a556"
    },
    {
      "constant": true,
      "inputs": [
        {
          "name": "_debtor",
          "type": "address"
        }
      ],
      "name": "getUserEndorsers",
      "outputs": [
        {
          "name": "",
          "type": "address[]"
        }
      ],
      "payable": false,
      "stateMutability": "view",
      "type": "function",
      "signature": "0x91409151"
    },
    {
      "constant": false,
      "inputs": [],
      "name": "stakeMoney",
      "outputs": [],
      "payable": true,
      "stateMutability": "payable",
      "type": "function",
      "signature": "0xdaa7fd17"
    },
    {
      "constant": false,
      "inputs": [
        {
          "name": "_amount",
          "type": "uint256"
        }
      ],
      "name": "withdrawStakeMoney",
      "outputs": [],
      "payable": false,
      "stateMutability": "nonpayable",
      "type": "function",
      "signature": "0x9c21cf97"
    },
    {
      "constant": false,
      "inputs": [
        {
          "name": "_endorsed",
          "type": "address"
        },
        {
          "name": "_amount",
          "type": "uint256"
        }
      ],
      "name": "endorseUser",
      "outputs": [],
      "payable": false,
      "stateMutability": "nonpayable",
      "type": "function",
      "signature": "0x8ee25f11"
    },
    {
      "constant": false,
      "inputs": [
        {
          "name": "_endorsed",
          "type": "address"
        }
      ],
      "name": "declineEndorsement",
      "outputs": [],
      "payable": false,
      "stateMutability": "nonpayable",
      "type": "function",
      "signature": "0xa464382f"
    },
    {
      "constant": false,
      "inputs": [],
      "name": "requestLending",
      "outputs": [],
      "payable": false,
      "stateMutability": "nonpayable",
      "type": "function",
      "signature": "0xd1c873b0"
    }
  ],
  "bytecode": "0x608060405234801561001057600080fd5b506119ed806100206000396000f3fe6080604052600436106100b9576000357c0100000000000000000000000000000000000000000000000000000000900480639140915111610081578063914091511461038d5780639c21cf9714610433578063a464382f1461046e578063aa6be303146104bf578063d1c873b014610524578063daa7fd171461053b576100b9565b806328fd10d7146100be5780632ecd4e7d1461012a5780634da6a55614610261578063527d5906146102c65780638ee25f1114610332575b600080fd5b3480156100ca57600080fd5b5061010d600480360360208110156100e157600080fd5b81019080803573ffffffffffffffffffffffffffffffffffffffff169060200190929190505050610545565b604051808381526020018281526020019250505060405180910390f35b34801561013657600080fd5b506101796004803603602081101561014d57600080fd5b81019080803573ffffffffffffffffffffffffffffffffffffffff169060200190929190505050610569565b604051808573ffffffffffffffffffffffffffffffffffffffff1673ffffffffffffffffffffffffffffffffffffffff1681526020018481526020018373ffffffffffffffffffffffffffffffffffffffff1673ffffffffffffffffffffffffffffffffffffffff16815260200180602001828103825283818151815260200191508051906020019080838360005b83811015610223578082015181840152602081019050610208565b50505050905090810190601f1680156102505780820380516001836020036101000a031916815260200191505b509550505050505060405180910390f35b34801561026d57600080fd5b506102b06004803603602081101561028457600080fd5b81019080803573ffffffffffffffffffffffffffffffffffffffff169060200190929190505050610671565b6040518082815260200191505060405180910390f35b3480156102d257600080fd5b50610315600480360360208110156102e957600080fd5b81019080803573ffffffffffffffffffffffffffffffffffffffff1690602001909291905050506106bd565b604051808381526020018281526020019250505060405180910390f35b34801561033e57600080fd5b5061038b6004803603604081101561035557600080fd5b81019080803573ffffffffffffffffffffffffffffffffffffffff1690602001909291908035906020019092919050505061074f565b005b34801561039957600080fd5b506103dc600480360360208110156103b057600080fd5b81019080803573ffffffffffffffffffffffffffffffffffffffff169060200190929190505050610d47565b6040518080602001828103825283818151815260200191508051906020019060200280838360005b8381101561041f578082015181840152602081019050610404565b505050509050019250505060405180910390f35b34801561043f57600080fd5b5061046c6004803603602081101561045657600080fd5b8101908080359060200190929190505050610e17565b005b34801561047a57600080fd5b506104bd6004803603602081101561049157600080fd5b81019080803573ffffffffffffffffffffffffffffffffffffffff169060200190929190505050611172565b005b3480156104cb57600080fd5b5061050e600480360360208110156104e257600080fd5b81019080803573ffffffffffffffffffffffffffffffffffffffff169060200190929190505050611638565b6040518082815260200191505060405180910390f35b34801561053057600080fd5b50610539611656565b005b6105436117b9565b005b60016020528060005260406000206000915090508060000154908060020154905082565b60006020528060005260406000206000915090508060000160009054906101000a900473ffffffffffffffffffffffffffffffffffffffff16908060010154908060020160009054906101000a900473ffffffffffffffffffffffffffffffffffffffff1690806003018054600181600116156101000203166002900480601f0160208091040260200160405190810160405280929190818152602001828054600181600116156101000203166002900480156106675780601f1061063c57610100808354040283529160200191610667565b820191906000526020600020905b81548152906001019060200180831161064a57829003601f168201915b5050505050905084565b6000600160008373ffffffffffffffffffffffffffffffffffffffff1673ffffffffffffffffffffffffffffffffffffffff168152602001908152602001600020600001549050919050565b600080600160008473ffffffffffffffffffffffffffffffffffffffff1673ffffffffffffffffffffffffffffffffffffffff16815260200190815260200160002060000154600160008573ffffffffffffffffffffffffffffffffffffffff1673ffffffffffffffffffffffffffffffffffffffff1681526020019081526020016000206002015491509150915091565b80600160003373ffffffffffffffffffffffffffffffffffffffff1673ffffffffffffffffffffffffffffffffffffffff168152602001908152602001600020600201541015610807576040517f08c379a00000000000000000000000000000000000000000000000000000000081526004018080602001828103825260108152602001807f6e6f7420656e6f756768207374616b650000000000000000000000000000000081525060200191505060405180910390fd5b60018060003373ffffffffffffffffffffffffffffffffffffffff1673ffffffffffffffffffffffffffffffffffffffff16815260200190815260200160002060010160008473ffffffffffffffffffffffffffffffffffffffff1673ffffffffffffffffffffffffffffffffffffffff16815260200190815260200160002060006101000a81548160ff0219169083151502179055506108f381600160003373ffffffffffffffffffffffffffffffffffffffff1673ffffffffffffffffffffffffffffffffffffffff1681526020019081526020016000206002015461195c90919063ffffffff16565b600160003373ffffffffffffffffffffffffffffffffffffffff1673ffffffffffffffffffffffffffffffffffffffff1681526020019081526020016000206002018190555061098e81600260008573ffffffffffffffffffffffffffffffffffffffff1673ffffffffffffffffffffffffffffffffffffffff1681526020019081526020016000206000015461197c90919063ffffffff16565b600260008473ffffffffffffffffffffffffffffffffffffffff1673ffffffffffffffffffffffffffffffffffffffff16815260200190815260200160002060000181905550610a6681600160003373ffffffffffffffffffffffffffffffffffffffff1673ffffffffffffffffffffffffffffffffffffffff16815260200190815260200160002060030160008573ffffffffffffffffffffffffffffffffffffffff1673ffffffffffffffffffffffffffffffffffffffff1681526020019081526020016000205461197c90919063ffffffff16565b600160003373ffffffffffffffffffffffffffffffffffffffff1673ffffffffffffffffffffffffffffffffffffffff16815260200190815260200160002060030160008473ffffffffffffffffffffffffffffffffffffffff1673ffffffffffffffffffffffffffffffffffffffff16815260200190815260200160002081905550610b7b81600260008573ffffffffffffffffffffffffffffffffffffffff1673ffffffffffffffffffffffffffffffffffffffff16815260200190815260200160002060010160003373ffffffffffffffffffffffffffffffffffffffff1673ffffffffffffffffffffffffffffffffffffffff1681526020019081526020016000205461197c90919063ffffffff16565b600260008473ffffffffffffffffffffffffffffffffffffffff1673ffffffffffffffffffffffffffffffffffffffff16815260200190815260200160002060010160003373ffffffffffffffffffffffffffffffffffffffff1673ffffffffffffffffffffffffffffffffffffffff16815260200190815260200160002081905550600260008373ffffffffffffffffffffffffffffffffffffffff1673ffffffffffffffffffffffffffffffffffffffff1681526020019081526020016000206002013390806001815401808255809150509060018203906000526020600020016000909192909190916101000a81548173ffffffffffffffffffffffffffffffffffffffff021916908373ffffffffffffffffffffffffffffffffffffffff160217905550507ff13deb3fec4383bd42e0b7de6c178b82a2cb900f3d5c06dc1596620242860b57338383604051808473ffffffffffffffffffffffffffffffffffffffff1673ffffffffffffffffffffffffffffffffffffffff1681526020018373ffffffffffffffffffffffffffffffffffffffff1673ffffffffffffffffffffffffffffffffffffffff168152602001828152602001935050505060405180910390a15050565b6060600260008373ffffffffffffffffffffffffffffffffffffffff1673ffffffffffffffffffffffffffffffffffffffff168152602001908152602001600020600201805480602002602001604051908101604052809291908181526020018280548015610e0b57602002820191906000526020600020905b8160009054906101000a900473ffffffffffffffffffffffffffffffffffffffff1673ffffffffffffffffffffffffffffffffffffffff1681526020019060010190808311610dc1575b50505050509050919050565b80600160003373ffffffffffffffffffffffffffffffffffffffff1673ffffffffffffffffffffffffffffffffffffffff168152602001908152602001600020600001541015610ecf576040517f08c379a00000000000000000000000000000000000000000000000000000000081526004018080602001828103825260208152602001807f63616e2774207769746864726177206d6f7265207468616e206465706f73697481525060200191505060405180910390fd5b80600160003373ffffffffffffffffffffffffffffffffffffffff1673ffffffffffffffffffffffffffffffffffffffff168152602001908152602001600020600201541015610f87576040517f08c379a000000000000000000000000000000000000000000000000000000000815260040180806020018281038252601d8152602001807f63616e277420776974686472617720656e646f72736564206d6f6e657900000081525060200191505060405180910390fd5b610fdc81600160003373ffffffffffffffffffffffffffffffffffffffff1673ffffffffffffffffffffffffffffffffffffffff1681526020019081526020016000206000015461195c90919063ffffffff16565b600160003373ffffffffffffffffffffffffffffffffffffffff1673ffffffffffffffffffffffffffffffffffffffff1681526020019081526020016000206000018190555061107781600160003373ffffffffffffffffffffffffffffffffffffffff1673ffffffffffffffffffffffffffffffffffffffff1681526020019081526020016000206002015461195c90919063ffffffff16565b600160003373ffffffffffffffffffffffffffffffffffffffff1673ffffffffffffffffffffffffffffffffffffffff168152602001908152602001600020600201819055503373ffffffffffffffffffffffffffffffffffffffff166108fc829081150290604051600060405180830381858888f19350505050158015611103573d6000803e3d6000fd5b507f75293ffef634e3a98b3df17536efea0fc026ee8b422c755aecc9093f77d8ecf23382604051808373ffffffffffffffffffffffffffffffffffffffff1673ffffffffffffffffffffffffffffffffffffffff1681526020018281526020019250505060405180910390a150565b6000600160003373ffffffffffffffffffffffffffffffffffffffff1673ffffffffffffffffffffffffffffffffffffffff16815260200190815260200160002060010160008373ffffffffffffffffffffffffffffffffffffffff1673ffffffffffffffffffffffffffffffffffffffff16815260200190815260200160002060006101000a81548160ff0219169083151502179055506112de600160003373ffffffffffffffffffffffffffffffffffffffff1673ffffffffffffffffffffffffffffffffffffffff16815260200190815260200160002060030160008373ffffffffffffffffffffffffffffffffffffffff1673ffffffffffffffffffffffffffffffffffffffff16815260200190815260200160002054600160003373ffffffffffffffffffffffffffffffffffffffff1673ffffffffffffffffffffffffffffffffffffffff1681526020019081526020016000206002015461197c90919063ffffffff16565b600160003373ffffffffffffffffffffffffffffffffffffffff1673ffffffffffffffffffffffffffffffffffffffff168152602001908152602001600020600201819055506113f8600160003373ffffffffffffffffffffffffffffffffffffffff1673ffffffffffffffffffffffffffffffffffffffff16815260200190815260200160002060030160008373ffffffffffffffffffffffffffffffffffffffff1673ffffffffffffffffffffffffffffffffffffffff16815260200190815260200160002054600260008473ffffffffffffffffffffffffffffffffffffffff1673ffffffffffffffffffffffffffffffffffffffff1681526020019081526020016000206000015461195c90919063ffffffff16565b600260008373ffffffffffffffffffffffffffffffffffffffff1673ffffffffffffffffffffffffffffffffffffffff168152602001908152602001600020600001819055506000600160003373ffffffffffffffffffffffffffffffffffffffff1673ffffffffffffffffffffffffffffffffffffffff16815260200190815260200160002060030160008373ffffffffffffffffffffffffffffffffffffffff1673ffffffffffffffffffffffffffffffffffffffff1681526020019081526020016000208190555060008090505b600260008373ffffffffffffffffffffffffffffffffffffffff1673ffffffffffffffffffffffffffffffffffffffff1681526020019081526020016000206002018054905081101561159d57600260008373ffffffffffffffffffffffffffffffffffffffff1673ffffffffffffffffffffffffffffffffffffffff168152602001908152602001600020600201818154811061156357fe5b9060005260206000200160006101000a81549073ffffffffffffffffffffffffffffffffffffffff021916905580806001019150506114c9565b507f9a321d8b34fc0eefafd2db0af243a071699ac11c864a68e8ad002aacb5bf41e23382604051808373ffffffffffffffffffffffffffffffffffffffff1673ffffffffffffffffffffffffffffffffffffffff1681526020018273ffffffffffffffffffffffffffffffffffffffff1673ffffffffffffffffffffffffffffffffffffffff1681526020019250505060405180910390a150565b60026020528060005260406000206000915090508060000154905081565b6000600260003373ffffffffffffffffffffffffffffffffffffffff1673ffffffffffffffffffffffffffffffffffffffff1681526020019081526020016000206000015490506116f281600260003373ffffffffffffffffffffffffffffffffffffffff1673ffffffffffffffffffffffffffffffffffffffff1681526020019081526020016000206000015461195c90919063ffffffff16565b600260003373ffffffffffffffffffffffffffffffffffffffff1673ffffffffffffffffffffffffffffffffffffffff168152602001908152602001600020600001819055507f57ed06d23c45f213266ec963c4fac73d4512efcc5b0549fd3705c61c9eff4eec3361176e60028461199b90919063ffffffff16565b604051808373ffffffffffffffffffffffffffffffffffffffff1673ffffffffffffffffffffffffffffffffffffffff1681526020018281526020019250505060405180910390a150565b61180e34600160003373ffffffffffffffffffffffffffffffffffffffff1673ffffffffffffffffffffffffffffffffffffffff1681526020019081526020016000206000015461197c90919063ffffffff16565b600160003373ffffffffffffffffffffffffffffffffffffffff1673ffffffffffffffffffffffffffffffffffffffff168152602001908152602001600020600001819055506118a934600160003373ffffffffffffffffffffffffffffffffffffffff1673ffffffffffffffffffffffffffffffffffffffff1681526020019081526020016000206002015461197c90919063ffffffff16565b600160003373ffffffffffffffffffffffffffffffffffffffff1673ffffffffffffffffffffffffffffffffffffffff168152602001908152602001600020600201819055507f62c7741a593fffd08a3c06b7091df7b6f15a1df1f0dd6973a294c18dd20e45b93334604051808373ffffffffffffffffffffffffffffffffffffffff1673ffffffffffffffffffffffffffffffffffffffff1681526020018281526020019250505060405180910390a1565b60008282111561196b57600080fd5b600082840390508091505092915050565b60008082840190508381101561199157600080fd5b8091505092915050565b60008082116119a957600080fd5b60008284816119b457fe5b049050809150509291505056fea165627a7a7230582073c6aab6d5d85404007b42dce3f914519f058109ab76b3173a8f11243f8a95cf0029",
  "source": "pragma solidity ^0.5.0;\nimport '../node_modules/openzeppelin-solidity/contracts/math/SafeMath.sol';\n\ncontract Debt {\n\n  using SafeMath for uint256;\n  \n  /** @notice Logs when an User stakes money. */\n  event LogStakeMoney(\n    address _staker,\n    uint256 _amount\n  );\n\n  /** @notice Logs when an User withdraws stake money. */\n  event LogWithdrawStakeMoney(\n    address _staker,\n    uint256 _amount\n  );\n\n  /** @notice Logs when an User endorses another user. */\n  event LogEndorse(\n    address _staker,\n    address _endorsed,\n    uint256 _amount\n  );\n\n  /** @notice Logs when an User removes endorsement of another user. */\n  event LogDeclineEndorsement(\n    address _staker,\n    address _declined\n  );\n  \n  /** @notice Logs when an User requests a lending. */\n  event LogRequestLending(\n    address _requester,\n    uint256 _amount\n  );\n\n  /** @dev struct of debt object */ \n  struct debtStruct{\n    address debtor;\n    uint256 amount;\n    address lender;\n    string status; //pending, accepted, completed\n  }\n\n  /** @dev struct of user */ \n  struct user{\n    uint256 stakedAmount;\n    mapping( address => bool) endorsements;\n    uint256 availableToEndorse;\n    mapping( address => uint256) userToEndorsedStake;\n  }\n\n  /** @dev struct of debtor */ \n  struct debtor{\n    uint256 endorsedStake;\n    mapping( address => uint256) endorserToUserStake;\n    address[] userEndorsers;\n  }\n\n  mapping (address => debtStruct) public debts;\n  mapping (address => user) public lenders;\n  mapping (address => debtor) public debtors;\n\n  /** @notice Gets the amount stacked by an user.\n    * @param _lender address of the lender.\n    * @return staked amount.\n    */\n  function getLender(address _lender) public view \n  returns(\n    uint256,\n    uint256\n  ){\n    return(\n      lenders[_lender].stakedAmount,\n      lenders[_lender].availableToEndorse\n    );\n\n  }\n\n  /** @notice Gets the amount stacked by an user.\n    * @param _lender address of the lender.\n    * @return staked amount.\n    */\n  function getStakedAmount(address _lender) public view returns(uint256){\n    return lenders[_lender].stakedAmount;\n  }\n\n  /** @notice Gets the array of addresses that endorsed an user.\n    * @param _debtor address of the debtor.\n    * @return array of addresses.\n    */\n  function getUserEndorsers(address _debtor) public view returns(address[] memory){\n    return debtors[_debtor].userEndorsers;\n  }\n \n  /** @notice Stakes money into the contract.\n    * @dev increase the amount staked and the amount available to endorse.\n    */\n  function stakeMoney() public payable {\n    lenders[msg.sender].stakedAmount = lenders[msg.sender].stakedAmount.add(msg.value);\n    lenders[msg.sender].availableToEndorse = lenders[msg.sender].availableToEndorse.add(msg.value);\n    emit LogStakeMoney(msg.sender, msg.value);\n  }\n\n  /** @notice Withdraws the staked money.\n    * @param _amount amount to be returned to the owner.\n    * @dev the amount can't be lended or endorsed in order to withdraw.\n    */\n  function withdrawStakeMoney(uint256 _amount) public {\n    //require to not have a debt in progress\n    require(lenders[msg.sender].stakedAmount >= _amount, \"can't withdraw more than deposit\");\n    require(lenders[msg.sender].availableToEndorse >= _amount, \"can't withdraw endorsed money\");\n    lenders[msg.sender].stakedAmount = lenders[msg.sender].stakedAmount.sub(_amount);\n    lenders[msg.sender].availableToEndorse = lenders[msg.sender].availableToEndorse.sub(_amount);\n    msg.sender.transfer(_amount);\n    emit LogWithdrawStakeMoney(msg.sender, _amount);\n  }\n\n  /** @notice Endorse an user with an amount.\n    * @param _endorsed The user that gets the endorsment.\n    * @param _amount amount to be endorsed the user.\n    * @dev the user needs to have stake available to endorse.\n    */\n  function endorseUser(address _endorsed, uint256 _amount) public {\n    require(lenders[msg.sender].availableToEndorse >= _amount, \"not enough stake\");\n    lenders[msg.sender].endorsements[_endorsed] = true;\n    lenders[msg.sender].availableToEndorse = lenders[msg.sender].availableToEndorse.sub(_amount);\n    debtors[_endorsed].endorsedStake = debtors[_endorsed].endorsedStake.add(_amount);\n    lenders[msg.sender].userToEndorsedStake[_endorsed] = lenders[msg.sender].userToEndorsedStake[_endorsed].add(_amount);\n    debtors[_endorsed].endorserToUserStake[msg.sender] = debtors[_endorsed].endorserToUserStake[msg.sender].add(_amount);\n    debtors[_endorsed].userEndorsers.push(msg.sender);\n    emit LogEndorse(msg.sender, _endorsed, _amount);\n  }\n\n  /** @notice Removes the endorsement of an user.\n    * @param _endorsed The user that gets the endorsment removed.\n    * @dev The user can't have a lending to be declined. The amount endorsed is returned to the staker.\n    */\n  function declineEndorsement(address _endorsed) public {\n    //require to not have a debt in progress\n    lenders[msg.sender].endorsements[_endorsed] = false;\n    lenders[msg.sender].availableToEndorse = lenders[msg.sender].availableToEndorse.add(lenders[msg.sender].userToEndorsedStake[_endorsed]);\n    debtors[_endorsed].endorsedStake = debtors[_endorsed].endorsedStake.sub(lenders[msg.sender].userToEndorsedStake[_endorsed]);\n    lenders[msg.sender].userToEndorsedStake[_endorsed] = 0;\n    for (uint i = 0; i < debtors[_endorsed].userEndorsers.length; i++){\n      delete debtors[_endorsed].userEndorsers[i];\n    }\n    emit LogDeclineEndorsement(msg.sender, _endorsed);\n  }\n\n  /** @notice Creates a lend request that other users can fund.\n    * @dev Locks the endorsed money for a time, if there is no lending cancel the request. The requester can only request half of what is endorsed.\n    */\n  function requestLending() public {\n    uint256 amount = debtors[msg.sender].endorsedStake;\n    debtors[msg.sender].endorsedStake = debtors[msg.sender].endorsedStake.sub(amount);\n    //crear objeto con div(2)\n    //al pagar multiplicar por 2\n    emit LogRequestLending(msg.sender, amount.div(2));\n  }\n}\n",
  "sourcePath": "/Users/crisgarner/Projects/hackathons/ristretto/contracts/Debt.sol",
  "compiler": {
    "name": "solc",
    "version": "0.5.7+commit.6da8b019.Emscripten.clang"
  },
  "schemaVersion": "3.0.6",
  "updatedAt": "2019-04-24T21:59:23.544Z",
  "devdoc": {
    "methods": {
      "declineEndorsement(address)": {
        "details": "The user can't have a lending to be declined. The amount endorsed is returned to the staker.",
        "params": {
          "_endorsed": "The user that gets the endorsment removed."
        }
      },
      "endorseUser(address,uint256)": {
        "details": "the user needs to have stake available to endorse.",
        "params": {
          "_amount": "amount to be endorsed the user.",
          "_endorsed": "The user that gets the endorsment."
        }
      },
      "getLender(address)": {
        "params": {
          "_lender": "address of the lender."
        },
        "return": "staked amount."
      },
      "getStakedAmount(address)": {
        "params": {
          "_lender": "address of the lender."
        },
        "return": "staked amount."
      },
      "getUserEndorsers(address)": {
        "params": {
          "_debtor": "address of the debtor."
        },
        "return": "array of addresses."
      },
      "requestLending()": {
        "details": "Locks the endorsed money for a time, if there is no lending cancel the request. The requester can only request half of what is endorsed."
      },
      "stakeMoney()": {
        "details": "increase the amount staked and the amount available to endorse."
      },
      "withdrawStakeMoney(uint256)": {
        "details": "the amount can't be lended or endorsed in order to withdraw.",
        "params": {
          "_amount": "amount to be returned to the owner."
        }
      }
    }
  },
  "userdoc": {
    "methods": {
      "declineEndorsement(address)": {
        "notice": "Removes the endorsement of an user."
      },
      "endorseUser(address,uint256)": {
        "notice": "Endorse an user with an amount."
      },
      "getLender(address)": {
        "notice": "Gets the amount stacked by an user."
      },
      "getStakedAmount(address)": {
        "notice": "Gets the amount stacked by an user."
      },
      "getUserEndorsers(address)": {
        "notice": "Gets the array of addresses that endorsed an user."
      },
      "requestLending()": {
        "notice": "Creates a lend request that other users can fund."
      },
      "stakeMoney()": {
        "notice": "Stakes money into the contract."
      },
      "withdrawStakeMoney(uint256)": {
        "notice": "Withdraws the staked money."
      }
    }
  }
}